:020000040800F2
:10000000F0060020CD010008690700083704000849
:1000100071040008B1020008371500080000000054
:1000200000000000000000000000000009090008B6
:10003000E102000800000000F1070008F90A0008CA
:10004000E7010008E7010008E7010008E7010008F0
:10005000E7010008E7010008E7010008E7010008E0
:10006000E7010008E7010008E7010008E7010008D0
:10007000E7010008E7010008E7010008E7010008C0
:10008000E7010008E7010008E7010008E7010008B0
:10009000E7010008E7010008E7010008E7010008A0
:1000A000E7010008E7010008E7010008E701000890
:1000B000E70100085D0B0008E7010008E701000800
:1000C000E7010008E7010008E7010008E701000870
:1000D000E7010008B512000849130008E70100080D
:1000E000E7010008E7010008E7010008E701000850
:1000F000E7010008E7010008E7010008E701000840
:10010000E7010008E7010008E7010008E70100082F
:1001100009120008E7010008E7010008E7010008EC
:10012000E7010008E7010008E7010008E70100080F
:1001300000F002F800F03AF80AA090E8000C8244BF
:100140008344AAF10107DA4501D100F02FF8AFF29C
:10015000090EBAE80F0013F0010F18BFFB1A43F0A5
:1001600001031847DC300000FC300000103A24BFC7
:1001700078C878C1FAD8520724BF30C830C144BF0C
:1001800004680C607047000000230024002500264E
:10019000103A28BF78C1FBD8520728BF30C148BFEA
:1001A0000B6070471FB51FBD10B510BD00F033F8D0
:1001B0001146FFF7F7FF01F0D7FA00F051F803B44A
:1001C000FFF7F2FF03BC01F0B8F9000009488047CF
:1001D00009480047FEE7FEE7FEE7FEE7FEE7FEE729
:1001E000FEE7FEE7FEE7FEE704480549054A064B41
:1001F00070470000FD0A000831010008F0000020EF
:10020000F0060020F0020020F00200207047704746
:10021000704770477047754600F02CF8AE460500F1
:100220006946534620F00700854618B020B5FFF711
:10023000DBFFBDE820404FF000064FF000074FF015
:1002400000084FF0000B21F00701AC46ACE8C009F4
:10025000ACE8C009ACE8C009ACE8C0098D467047FD
:1002600010B50446AFF300802046BDE81040FFF70C
:10027000A6BF0000004870479000002010B504465B
:1002800000BF204600F0A8FE0028FAD121462046F3
:1002900000F032FAC82001F075F904480078401CDB
:1002A000024908700846007810BD00007100002067
:1002B00000BFFEE708B50121402000F0ABFA0E2098
:1002C000ADF8000010208DF8030003208DF8020027
:1002D0006946024800F020F808BD000000180140FF
:1002E0007047000010B5044600BF204600F0BAFE7B
:1002F0000028FAD12146204600F00CFAC82001F06F
:1003000041F904480078401C02490870084600780A
:1003100010BD0000700000202DE9F04102460025CC
:100320000026002000230024002791F803C00CF0D1
:100330000F0591F803C00CF0100CBCF1000F03D0B6
:1003400091F802C04CEA050591F800C0BCF1000F1D
:1003500031D0146800202BE04FF0010C0CFA00F3B0
:10036000B1F800C00CEA03069E4220D183004FF092
:100370000F0C0CFA03F7BC4305FA03FC4CEA040427
:1003800091F803C0BCF1280F06D14FF0010C0CFA14
:1003900000FCC2F814C00AE091F803C0BCF1480F99
:1003A00005D14FF0010C0CFA00FCC2F810C0401C43
:1003B0000828D1D31460B1F800C0BCF1FF0F34DDC0
:1003C000546800202EE000F1080C4FF0010808FAF4
:1003D0000CF3B1F800C00CEA03069E4221D1830061
:1003E0004FF00F0C0CFA03F7BC4305FA03FC4CEA80
:1003F000040491F803C0BCF1280F05D100F1080CEA
:1004000008FA0CF8C2F8148091F803C0BCF1480F48
:1004100007D100F1080C4FF0010808FA0CF8C2F8F7
:100420001080401C0828CED35460BDE8F0814161A3
:1004300070470161704700BFFEE7000010B5044639
:1004400000BF204600F054FE0028FAD12146204685
:1004500000F06EF9C82001F095F804480078401CBF
:10046000024908700846007810BD000072000020A4
:1004700000BFFEE770B506460D461446012E06D0B5
:10048000022E33D0032E60D0042E2ED18BE0F5B196
:10049000012D02D0022D27D10CE001215A48FFF78F
:1004A000C8FF02215848FFF7C2FFA1B2574800F029
:1004B00038FD19E001215448FFF7B9FF02215248E5
:1004C000FFF7B7FFA1B2514800F02BFD0CE001216E
:1004D0004D48FFF7ACFF02214B48FFF7A8FFA1B240
:1004E0004A4800F01EFD00BF00BF8AE0F5B1012DB3
:1004F00002D0022D27D10CE004214348FFF799FFD9
:1005000008214148FFF793FFA1B2404800F00BFDDE
:1005100019E004213C48FFF78AFF08213A48FFF719
:1005200088FFA1B2394800F0FEFC0CE004213648F7
:10053000FFF77DFF08213448FFF779FFA1B2334868
:1005400000F0F1FC00BF00BF5BE0EDB1012D0ED06B
:10055000022D26D110212C48FFF76BFF20212A48BD
:10056000FFF765FFA1B2294800F0DFFC19E0102178
:100570002548FFF75CFF20212348FFF75AFFA1B26F
:10058000224800F0D2FC0CE010211F48FFF74FFF7B
:1005900020211D48FFF74BFFA1B21C4800F0C5FC0D
:1005A00000BF00BF2DE0EDB1012D0ED0022D26D1F0
:1005B00040211548FFF73DFF80211348FFF737FF23
:1005C000A1B2124800F0B3FC19E040210E48FFF739
:1005D0002EFF80210C48FFF72CFFA1B20B4800F042
:1005E000A6FC0CE040210848FFF721FF80210648C7
:1005F000FFF71DFFA1B2054800F099FC00BF00BF46
:1006000000BF00BF70BD00000010014000080040A6
:1006100030B589B005460C460121042000F0EAF807
:100620000121092000F0F6F8ADF80C50ADF80840B3
:100630000020ADF80E00ADF80A0002A92B4800F02A
:1006400079FC6020ADF814000120ADF81600002000
:10065000ADF81A00ADF81C0005A9244800F006FB0F
:100660000821224800F04EFB05A9204800F054FB69
:1006700008211E4800F0A2FB05A91C4800F0ACFBB5
:1006800008211A4800F0F8FB05A9184800F0FEFB05
:100690000821164800F038FC0121144800F0B0FA97
:1006A0000121124800F0BBFA4FF47070ADF804005D
:1006B00018208DF8070003208DF8060001A90C48CA
:1006C000FFF72AFE0121102000F0A4F8FF20ADF86A
:1006D000040010208DF8070003208DF8060001A902
:1006E0000448FFF719FE09B030BD000000080040C3
:1006F000000C01400010014070B504460D46224632
:1007000002210120FFF7B6FE2A4601210320FFF750
:10071000B1FE70BD70B504460D4622460121084663
:10072000FFF7A8FE2A4602210320FFF7A3FE70BDB3
:1007300070B504460D462A4602210846FFF79AFE88
:10074000224601210420FFF795FE70BD70B50446D6
:100750000D46224601210220FFF78CFE2A46022187
:100760000420FFF787FE70BD7047000070B50021C0
:1007700000230F22C47804B3154C246804F4E06409
:10078000C4F5E064210AC1F10403CA40447804FAC4
:1007900003F184781440214309010E4C0678A155D9
:1007A000047804F01F050124AC4005786D11AD00FC
:1007B00005F1E025C5F8004109E0047804F01F05C3
:1007C0000124AC40044D0678761145F8264070BDF2
:1007D0000CED00E000E400E080E100E002490143AC
:1007E000024A1160704700000000FA050CED00E0BD
:1007F0007047000029B1064AD2690243044BDA610E
:1008000004E0034AD2698243014BDA617047000079
:100810000010024029B1064A92690243044B9A61D2
:1008200004E0034A92698243014B9A6170470000D9
:100830000010024030B500210022002400232D4D7D
:100840006D6805F00C0121B1042905D0082923D1D8
:1008500005E0294D056022E0274D05601FE0254D8C
:100860006D6805F47012234D6D6805F4803402251F
:1008700005EB92421CB9214D554305600BE01D4D1F
:100880006D6805F400351DB11C4D5543056002E04F
:10089000194D5543056002E0174D056000BF00BFCC
:1008A000144D6D6805F0F0010909154D6B5C056884
:1008B000DD4045600F4D6D6805F4E061090A104D9B
:1008C0006B5C4568DD4085600A4D6D6805F46051DC
:1008D000C90A0B4D6B5C4568DD40C560054D6D6810
:1008E00005F44041890B074D6B5CC568B5FBF3F51A
:1008F000056130BD0010024000127A0000093D0081
:100900005C0000206C0000207047000008B5012149
:100910002020FFF77FFF4FF47F40ADF80000282034
:100920008DF8030003208DF8020069460148FFF7A7
:10093000F3FC08BD0014014008B501214020FFF779
:1009400069FF4FF47F40ADF8000028208DF80300C8
:1009500003208DF8020069460148FFF7DDFC08BD61
:100960000018014008B501218020FFF753FF4FF424
:100970007F40ADF8000028208DF8030003208DF89B
:10098000020069460148FFF7C7FC08BD001C014092
:1009900008B501210802FFF73DFF4FF47F40ADF895
:1009A000000028208DF8030003208DF8020069461E
:1009B0000148FFF7B1FC08BD0020014010B500F070
:1009C00001F810BD0CB5002001900090334800687C
:1009D00040F480303149086000BF3048006800F4BE
:1009E000003000900198401C0190009818B90198BF
:1009F000B0F5A06FF1D12948006800F4003010B1C3
:100A00000120009001E0002000900098012843D1CF
:100A10002348006840F0100021490860084600683B
:100A200020F0030008600846006840F002000860FB
:100A30001A484068194948600846406848600846B6
:100A4000406840F4806048600846406820F47C10AC
:100A500048600846406840F4E8104860084600686E
:100A600040F08070086000BF0C48006800F0007023
:100A70000028F9D00948406820F003000749486081
:100A80000846406840F00200486000BF03484068E4
:100A900000F00C000828F9D10CBD00000010024045
:100AA0000020024010B5002211460120FFF7E2FCB1
:100AB000002211460220FFF7DDFC00221146032030
:100AC000FFF7D8FC002211460420FFF7D3FC10BD2D
:100AD000042808D14FF0E021096941F004014FF0EA
:100AE000E022116107E04FF0E021096921F00401E3
:100AF0004FF0E022116170477047000010B51348B5
:100B0000006840F00100114908600846406810493B
:100B100008400E494860084600680E4908400B49E5
:100B200008600846006820F4802008600846406895
:100B300020F4FE0048604FF41F008860FFF73EFF7E
:100B40004FF000600449086010BD00000010024032
:100B50000000FFF8FFFFF6FE08ED00E010B50121F0
:100B60000B4800F068F890B10121094800F054F8F2
:100B700008480068401C0749086007480068401C96
:100B80000549086005480068401C0449086010BD1C
:100B900000040040000000200400002008000020A5
:100BA0007FB505460C4601210220FFF723FEADF874
:100BB0000850ADF804400020ADF80A00ADF806007A
:100BC00001A90E4800F0B6F9012211460B4800F0C9
:100BD00043F81D208DF8000000208DF8010003204F
:100BE0008DF8020001208DF803006846FFF7BEFD76
:100BF0000121024800F013F87FBD0000000400400E
:100C000021B1028842F08002028004E002884FF69F
:100C10007F731A4002807047CA430282704721B135
:100C2000028842F00102028004E002884FF6FE735F
:100C30001A400280704730B502460020002300248D
:100C4000158A05EA0103958905EA010413B10CB17F
:100C5000012000E0002030BD1AB183890B4383815D
:100C600002E083898B4383817047000070B50024C4
:100C700000220023058C4FF6FE7635400584028C59
:100C80008388048B4FF68F752C40B51E2C400D8841
:100C90002C43751E2A400D892A434D882A43144D42
:100CA000A8420BD0134DA84208D0134DA84205D03E
:100CB000124DA84202D0124DA84213D14FF6F7753B
:100CC0002A404D892A434FF6FB752A408D882A43D6
:100CD0004FF6FF652B404FF6FF552B408D892B4378
:100CE000CD892B4383800483CD888586028470BDA3
:100CF000002C01400034014000400140004401400C
:100D0000004801400A460021018B4FF6F773194055
:100D1000114301837047000070B5002400220023B6
:100D2000058C4FF6EF7635400584028C8388048B62
:100D300048F6FF752C404FF6FF452C400D884FF6C6
:100D4000FF7606EA05252C434FF6DF752A400D890C
:100D500006EA05152A434D8806EA05152A43154D6E
:100D6000A84202D0144DA8421DD14FF67F752A40EB
:100D70004D894FF6FF7606EA05152A434FF6BF75F3
:100D80002A408D8806EA05152A434FF6FF352B4089
:100D90004FF2FF752B408D8906EA85052B43CD89DF
:100DA00006EA85052B4383800483CD88058702846A
:100DB00070BD0000002C0140003401400A460021B3
:100DC000018B4FF2FF7319404FF6FF7303EA0223C2
:100DD000194301837047000070B5002400220023EE
:100DE000058C4FF6FF6635400584028C8388848B22
:100DF0004FF68F752C404FF6FC752C400D882C4318
:100E00004FF6FF552A400D894FF6FF7606EA052575
:100E10002A434D8806EA05252A43154DA84202D0EB
:100E2000144DA8421DD14FF2FF752A404D894FF64F
:100E3000FF7606EA05252A434FF6FF352A408D88BE
:100E400006EA05252A434EF6FF752B404DF6FF7541
:100E50002B408D8906EA05152B43CD8906EA051539
:100E60002B4383808483CD888587028470BD0000F6
:100E7000002C0140003401400A460021818B4FF6CE
:100E8000F7731940114381837047000070B5002249
:100E900000230024058C4EF6FF7635400584038C34
:100EA0008488828B48F6FF752A404FF6FF452A401A
:100EB0000D884FF6FF7606EA05252A434DF6FF75A5
:100EC0002B400D8906EA05352B434D8806EA05358A
:100ED0002B430B4DA84202D00A4DA84208D14BF635
:100EE000FF752C408D894FF6FF7606EA85152C4359
:100EF00084808283CD88A0F84050038470BD0000B8
:100F0000002C0140003401400A460021818B4FF241
:100F1000FF7319404FF6FF7303EA022319438183DD
:100F20007047818670470187704781877047A0F8B6
:100F300040107047002202881D4B98420ED01D4B76
:100F400098420BD0B0F1804F08D01B4B984205D08F
:100F50001A4B984202D01A4B984204D14FF68F7325
:100F60001A404B881A43174B984207D0164B9842A9
:100F700004D04FF6FF431A40CB881A4302808B8877
:100F800083850B8803850A4B98420BD0094B984206
:100F900008D00E4B984205D00D4B984202D00D4B15
:100FA000984201D10B7A03860123838270470000A7
:100FB000002C0140003401400004004000080040C3
:100FC000000C0040001000400014004000400140B0
:100FD000004401400048014070B5044601251F4807
:100FE000006820B164213220FFF786FB30E01B4807
:100FF000001D006820B150212820FFF77DFB27E06D
:1010000016480830006820B146213220FFF774FBF3
:101010001EE012480C30006820B132214620FFF754
:101020006BFB15E00D481030006820B128215020DE
:10103000FFF762FB0CE009481430006820B1322150
:101040006420FFF759FB03E021462046FFF754FBDD
:101050000348006800B10025284670BD24012342E2
:101060002C81234270B5044601251F48006820B139
:1010700064213220FFF74EFB30E01B48001D006862
:1010800020B150212820FFF745FB27E01648083003
:10109000006820B146213220FFF73CFB1EE01248D9
:1010A0000C30006820B132214620FFF733FB15E0F9
:1010B0000D481030006820B128215020FFF72AFB8E
:1010C0000CE009481430006820B132216420FFF799
:1010D00021FB03E021462046FFF71CFB0348006884
:1010E00000B10025284670BD248122422C81234274
:1010F00070B5044601251F48006820B164213220E4
:10110000FFF716FB30E01B48001D006820B150219E
:101110002820FFF70DFB27E016480830006820B1B3
:1011200046213220FFF704FB1EE012480C30006815
:1011300020B132214620FFF7FBFA15E00D481030B0
:10114000006820B128215020FFF7F2FA0CE009488E
:101150001430006820B132216420FFF7E9FA03E07F
:1011600021462046FFF7E4FA0348006800B1002555
:10117000284670BD248123422C01234270B50446C9
:1011800001251F48006820B164213220FFF7DEFAF4
:1011900030E01B48001D006820B150212820FFF7D7
:1011A000D5FA27E016480830006820B146213220E1
:1011B000FFF7CCFA1EE012480C30006820B1322153
:1011C0004620FFF7C3FA15E00D481030006820B143
:1011D00028215020FFF7BAFA0CE0094814300068C3
:1011E00020B132216420FFF7B1FA03E02146204606
:1011F000FFF7ACFA0348006800B10025284670BD2F
:10120000240124422C01234210B540F225512448E8
:1012100000F0CCF8002841D040F22551204800F0E1
:101220009DF81F4800F07EF91E49087008460078B6
:1012300031280BD1084600781B491C4A1278885483
:101240001A480078401C194908701EE015480078BB
:1012500032280BD1134801781348144A127881546C
:1012600012480078401C114908700EE00D480078C3
:1012700033280AD10B4801780B480C4A1278815464
:101280000A480078401C094908700848007803287B
:1012900004DB0020064908600449087010BD000006
:1012A000004C004054000020190000205500002090
:1012B0005800002010B540F225511F4800F076F884
:1012C000002838D040F225511B4800F047F81A4852
:1012D00000F028F9194908700846007831280BD128
:1012E000084600781649174A12788854154800783D
:1012F000401C144908701EE01048007832280BD1B9
:101300000E4800780E490F4A127888540D4800782C
:10131000401C0C4908700EE00848007833280AD1B8
:10132000064801780648074A127881540548007833
:10133000401C0449087010BD0038014080000020A6
:101340008400002076000020704701F40072B2F59E
:10135000007F00D100BFCA430280704710B5002251
:10136000002340F66A14A14200D100BF0A120124F2
:101370009440A3B2DC43048010BD21B1828942F4C1
:101380000052828104E082894DF6FF731A40828107
:10139000704702460020B1F5007F00D100BF1388DE
:1013A0000B400BB1012000E00020704770B50246F1
:1013B000002400230025002040F66A16B14200D127
:1013C00000BFC1F3421501F01F03012606FA03F323
:1013D000012D02D19689334006E0022D02D1168AF2
:1013E000334001E0968A33400C12012606FA04F4D9
:1013F0001688344013B10CB1012000E0002070BD0C
:10140000F0B50346002400260025002040F66A17A8
:10141000B94200D100BF1846C1F3421401F01F06C3
:10142000012707FA06F5012C01D10C3004E0022C4B
:1014300001D1103000E014301AB107682F43076063
:1014400002E00768AF430760F0BD00002DE9F047F8
:1014500086B005460E460024A24600BFA1460027DE
:10146000B08900B100BF2F462C8A4CF6FF700440B3
:10147000F08804432C82AC894EF6F3100440B08807
:1014800031890843718908430443AC81AC8A4FF623
:10149000FF400440B0890443AC8201A8FFF7CAF9B9
:1014A0001F48874202D1DDF810A001E0DDF80CA052
:1014B000A88900F4004040B10AEBCA0000EB0A1012
:1014C00031684900B0FBF1F807E00AEBCA0000EB15
:1014D0000A1031688900B0FBF1F86420B8FBF0F025
:1014E00004012009642101FB1089A88900F400404F
:1014F00040B1322000EBC900B0FBF1F000F0070072
:10150000044308E0322000EB09106421B0FBF1F045
:1015100000F00F0004432C8106B0BDE8F087000006
:101520000038014001468888C0F308007047C1F3C5
:1015300008028280704700BFFEE700BF70470000CE
:1015400010B56FF00400FFF7C3FA0A4800680A49B3
:10155000B0FBF1F0094908700846007800EB400143
:10156000C1EBC0104FF6FF7101EAC00004490880CA
:1015700010BD00003400002000127A004800002056
:101580004A0000200146114A12884A434FF0E023E6
:101590005A6100229A611A46126942F001021A61E8
:1015A00000BF4FF0E022106900F001021AB100F410
:1015B0008032002AF5D04FF0E022126922F00102B9
:1015C0004FF0E0231A6100229A6170474A00002020
:1015D0000146114A12784A434FF0E0235A61002233
:1015E0009A611A46126942F001021A6100BF4FF077
:1015F000E022106900F001021AB100F48032002AE2
:10160000F5D04FF0E022126922F001024FF0E02302
:101610001A6100229A6170474800002008B5012134
:101620008020FFF7F7F80720ADF8000028208DF89C
:10163000030003208DF8020069460248FEF76CFEA5
:1016400008BD0000001C01402DE9F04706460F468A
:10165000144600254FF001084FF001094FF0010A30
:1016600000203B4908603B49C1F88801002C03DD9C
:1016700037490831086004E0012035490831086025
:1016800064420F20FFF7A4FF1D21C720FFF788FA4F
:1016900040F22B11472000F0E7FE09212E48FFF70A
:1016A00040FC09212C48FFF73EFC09212A48FFF79E
:1016B0003CFC002029490860294908602949086044
:1016C00041E00BE000212448FFF72BFC00202349D8
:1016D0000860681CC5B24FF0000806E01F480068AB
:1016E000B04202D1B8F1000FECD100BF0BE00021F5
:1016F0001948FFF718FC002019490860681CC5B29A
:101700004FF0000906E016480068B84202D1B9F16E
:10171000000FECD100BF0BE000210F48FFF705FCE4
:10172000002010490860681CC5B24FF0000A06E0AE
:101730000C480068A04202D1BAF1000FECD100BF02
:10174000032D00D100E0BCE700BFBDE8F08700003A
:1017500084012342000023420004004000000020D6
:101760000400002008000020FFF7EAFE4FF41650A6
:1017700001F0C2FC4FF4A060FFF730F8FEF79AFDCD
:10178000FFF74CFFFFF7D8F8FFF7C0F8FFF7EAF8CC
:10179000FFF7FEF840F2CF716520FEF739FF00F049
:1017A00077FF40F2CF2140F2CF7001F007FD4FF4F8
:1017B0007A70FFF7E7FE00F052BE2D210846FEF7D3
:1017C000B7FF0020FE49086007E06420FFF7DAFE5B
:1017D000FB480068401CFA490860F94800680A287C
:1017E000F3DB00210846FEF7A3FF03E032210846A1
:1017F000FEF790FFF34800680028F7D00021084664
:10180000FEF788FFFFF74EF9C820FFF7BBFE00BFC9
:101810004620FEF713FE0228FADB01F0BDFCFFF7BD
:1018200041F9C820FFF7AEFE03E028210846FEF785
:101830008DFFE54800680028F7D0FFF733F9C8208E
:10184000FFF7A0FE32210846FEF764FF4FF4FA705E
:10185000FFF798FEFFF726F9C820FFF793FE00BFB9
:101860005020FEF73FFD0128FADB01F095FCFFF761
:1018700019F94FF47A70FFF785FE28210846FEF724
:1018800049FFC820FFF77EFEFFF70CF9C820FFF7DD
:1018900079FE00BF5020FEF725FD0428FADB01F099
:1018A0007BFCFFF7FFF8C820FFF76CFE03E0282160
:1018B0000846FEF721FFC54800680028F7D0FFF76B
:1018C000F1F8C820FFF75EFE28210846FEF73EFF2C
:1018D0004FF4FA70FFF756FEFFF7E4F8C820FFF761
:1018E00051FE4FF4165001F0AFFB02E03220FFF73B
:1018F00049FEB74800680028F8D1B6480078B649D4
:101900000870B4484078B5490870B2488078B44946
:101910000870B4480078B4490860B2484078B349C8
:101920000860B0488078B24908603220AE4908604B
:101930003320AE4908603120AD49086028E02820F6
:10194000FFF71CFCA148001F006830B19F480068E9
:1019500018B19E48001D0068C8B99C48006838B19D
:101960009A48001D006818B198480830006870B99E
:101970009648001F006858B19448006840B19348E9
:10198000001D006820B191480830006800B100E0F7
:10199000D5E700BF28210846FEF7D8FE4FF4FA70BD
:1019A000FFF7F0FD28E02820FFF7E8FB8748001F3D
:1019B000006830B18548006818B18448001D00688F
:1019C000C8B98248006838B18048001D006818B165
:1019D0007E480830006870B97C48001F006858B124
:1019E0007A48006840B17948001D006820B1774806
:1019F0000830006800B100E0D5E700BFFFF752F8FB
:101A00004FF4FA70FFF7BEFD41F658320021084648
:101A1000FFF71AFE40F2CF2140F2CF7001F0CEFB6B
:101A200078214FF08040FFF77EFA4FF47A70FFF78D
:101A3000A9FD694800786C490968884202D10120F3
:101A400000F07AFF6548007867490968884202D14A
:101A5000022000F071FF62480078634909688842FB
:101A600002D1032000F068FF012000F0F7FF5A4880
:101A700000785E490968884202D1012000F05CFFCD
:101A80005648007859490968884202D1022000F07E
:101A900053FF5348007855490968884202D1032012
:101AA00000F04AFF022000F0D9FF4B48007850496F
:101AB0000968884202D1012000F03EFF47480078C3
:101AC0004B490968884202D1022000F035FF4448A2
:101AD000007847490968884202D1032000F02CFFB2
:101AE000032000F0BBFF00BF4620FEF7A7FC032841
:101AF000FADB01F051FBFEF7D5FFC820FFF742FDEE
:101B000003E028210846FEF721FE3A480068002835
:101B1000F7D0FEF7C7FFC820FFF734FD282108469D
:101B2000FEF7EAFD4FF4FA70FFF72CFDFEF7BAFF5F
:101B3000C820FFF727FD00BF4620FEF79FFB0128C6
:101B4000FADB01F029FBFEF7ADFFC820FFF71AFD15
:101B500003E028210846FEF7DDFD1A48001F006853
:101B60000028F6D0FEF79EFFC820FFF70BFD4FF4CC
:101B70007A70FFF707FD00201649087048708870DA
:101B8000002240F6B8314FF47A60FFF75DFD4FF464
:101B9000165001F059FA01200D49086002E0322088
:101BA000FFF7F0FC0A4800680028F8D109480078DF
:101BB00009490870074840780849087005481BE043
:101BC0002C000020308123422C8122422C0124420F
:101BD00058000020190000203000002031000020B3
:101BE000320000208400002020000020240000207B
:101BF000280000202C0123428078F9490870F94818
:101C00000078F9490870F7484078F8490870F548B5
:101C10008078F74908703220F34908703320F3497F
:101C200008703120F2490870002240F6B8314FF4B4
:101C30007A6001F079F929E02820FFF713FAED48DE
:101C4000006838B1EB48001D006818B1E948083059
:101C50000068D0B9E748001D006838B1E548083091
:101C6000006818B1E3480C30006870B9E1480068BA
:101C700060B1E048001D006840B1DE4808300068EF
:101C800020B1DC480C30006800B100E0D4E700BFB0
:101C900028210846FEF73EFD4FF4FA70FFF772FC6C
:101CA00029E02820FFF7DEF9D248006838B1D14892
:101CB000001D006818B1CF4808300068D0B9CD4881
:101CC000001D006838B1CB480830006818B1C94819
:101CD0000C30006870B9C748006860B1C548001D85
:101CE000006840B1C3480830006820B1C1480C30DA
:101CF000006800B100E0D4E700BFFEF7D3FE642027
:101D0000FFF740FC2AE028210846FEF7F5FCB94819
:101D1000006838B1B748001D006818B1B5480830F0
:101D20000068D0B9B348001D006838B1B148083028
:101D3000006818B1AF480C30006870B9AD48006851
:101D400060B1AC48001D006840B1AA480830006886
:101D500020B1A8480C30006800B100E0D3E700BF14
:101D6000FEF7A0FEC820FFF70DFC012000F0D4FE16
:101D70009D48007800F01EFF022000F0CDFE9B4839
:101D8000007800F017FF032000F0C6FE98480078A6
:101D900000F010FF07E032210846FEF7ADFC964840
:101DA000006800B100E0F6E700BFFEF77BFE2821E7
:101DB0000846FEF7AFFC4FF49670FFF7E3FBFEF723
:101DC00071FE00F02DFC012000F048FE2CE02321E4
:101DD0000846FEF7ADFC88480830006838B18648F0
:101DE0000C30006818B1844810300068D8B98248B7
:101DF0000C30006838B180481030006818B17E4857
:101E00001430006878B97C480830006860B17A48BE
:101E10000C30006840B178481030006820B1764836
:101E20001430006800B100E0D1E700BFFEF73AFED1
:101E300000F0F6FB022000F011FE28210846FEF714
:101E400085FC4FF4FA70FFF79DFB2AE02821084635
:101E5000FEF77CFC6948006838B16848001D0068DE
:101E600018B1664808300068D0B96448001D0068A1
:101E700038B162480830006818B160480C3000681A
:101E800070B95E48006860B15C48001D006840B1F0
:101E90005A480830006820B158480C30006800B13A
:101EA00000E0D3E700BFFEF7FDFD00F0B9FB032023
:101EB00000F0D4FD4FF4FA60FFF764FB32210846CE
:101EC000FEF71AFC4FF4FA70FFF75CFBFEF7EAFD31
:101ED00028210846FEF72CFC4FF4C870FFF752FB90
:101EE000FEF7E0FDC820FFF74DFB00BF3C20FEF7EA
:101EF000A5FA0328FADB01F04FF9FEF7D3FDC8205D
:101F0000FFF740FB03E028210846FEF71FFC394895
:101F1000083000680028F6D0FEF7C4FDC820FFF79F
:101F200031FB32210846FEF7E7FB4FF4FA70FFF76A
:101F300029FBFEF7B7FDC820FFF724FB00BF4620B2
:101F4000FEF79CF90228FADB01F026F9FEF7AAFD5C
:101F5000C820FFF717FB03E028210846FEF7DAFB4D
:101F600025480C3000680028F6D0FEF79BFDC820FD
:101F7000FFF708FB2BE02820FFF7BAF81E480830CF
:101F8000006838B11C480C30006818B11A4810308D
:101F90000068D8B918480C30006838B116481030BD
:101FA000006818B114481430006878B91248083035
:101FB000006860B110480C30006840B10E48103025
:101FC000006820B10C481430006800B100E0D2E78E
:101FD00000BFFEF767FD6420FFF7D4FA3BE0000086
:101FE00032000020840000201D0000201E00002080
:101FF0001F0000202801234220812342280124427F
:1020000028210846FEF7A2FBFE48006838B1FD48CB
:10201000001D006818B1FB4808300068D0B9F948C5
:10202000001D006838B1F7480830006818B1F5485D
:102030000C30006870B9F348006860B1F148001DC9
:10204000006840B1EF480830006820B1ED480C301E
:10205000006800B100E0D3E700BFFEF723FD642075
:10206000FFF790FA28210846FEF762FBC820FFF729
:1020700089FAFEF717FD4FF47A70FFF783FAE2480A
:102080000078312842D12AE032210846FEF734FB9D
:10209000DE48006838B1DD48001D006818B1DB4833
:1020A00008300068D0B9D948001D006838B1D74859
:1020B0000830006818B1D5480C30006870B9D348B2
:1020C000006860B1D148001D006840B1CF480830B9
:1020D000006820B1CD480C30006800B100E0D3E7C3
:1020E00000BFFEF7DFFC012000F016FD012000F02C
:1020F00035FE07E032210846FEF70CFBC4480068B5
:1021000000B100E0F6E700BFFEF7CCFCBE48007867
:10211000322805D1012000F0FFFC022000F06EFE05
:10212000B9480078332805D1012000F0F5FC0320E0
:1021300000F0AAFEB7480078312842D12AE03221C7
:102140000846FEF7D9FAB148006838B1AF48001D1B
:10215000006818B1AD4808300068D0B9AB48001D20
:10216000006838B1A9480830006818B1A7480C3099
:10217000006870B9A548006860B1A448001D0068F7
:1021800040B1A2480830006820B1A0480C30006877
:1021900000B100E0D3E700BFFEF784FC022000F0AE
:1021A000BBFC012000F0DAFD07E032210846FEF713
:1021B000B1FA9748006800B100E0F6E700BFFEF70B
:1021C00071FC94480078322805D1022000F0A4FC6C
:1021D000022000F013FE8F480078332805D102203A
:1021E00000F09AFC032000F04FFE8B480078312865
:1021F00042D12AE032210846FEF77EFA8348006881
:1022000038B18248001D006818B180480830006865
:10221000D0B97E48001D006838B17C48083000689D
:1022200018B17A480C30006870B97848006860B11D
:102230007648001D006840B174480830006820B13D
:1022400072480C30006800B100E0D3E700BFFEF731
:1022500029FC032000F060FC012000F07FFD07E076
:1022600032210846FEF756FA6948006800B100E0DE
:10227000F6E700BFFEF716FC67480078322805D164
:10228000032000F049FC022000F0B8FD624800780D
:10229000332805D1032000F03FFC032000F0F4FDBB
:1022A00003E028210846FEF751FA5C480068002840
:1022B000F7D0FEF7F7FBC820FFF764F93221084694
:1022C000FEF71AFA4FF49670FFF75CF9FEF7EAFB97
:1022D000C820FFF757F900BF4620FDF7CFFF0328BE
:1022E000FADB00F059FFFEF7DDFB00204C490860E7
:1022F00007E06420FFF746F949480068401C484958
:102300000860474800680A28F3DB03E028210846F4
:10231000FEF700FA3B48001D00680028F6D0FEF7E3
:10232000C1FBC820FFF72EF932210846FEF700FA5C
:102330004FF4FA70FFF726F9FEF7B4FBC820FFF759
:1023400021F900BF3220FEF779F80128FADB00F00E
:1023500023FFFEF7A7FB00203149086007E0642057
:10236000FFF710F92E480068401C2D4908602C48E2
:1023700000680A28F3DB0CE01E210846FEF7D8F9B6
:1023800020481430006818B91E481030006800B1A9
:1023900000E0F1E700BFFEF785FBC820FFF7F2F889
:1023A00052E028210846FEF7A7F91848006858B1FE
:1023B0001648001D006838B114480830006818B18C
:1023C00012480C30006868BB1048006838B10F48EC
:1023D000001D006818B10D480830006810BB0B489C
:1023E000001D006838B109480830006818B1074876
:1023F0000C300068B0B905480068A8B10348001D5A
:10240000006810E028812342310000202881224208
:102410002C01244230000020320000202C012342F5
:102420002C0000200FE070B90E48006818B10D486C
:10243000001D006838B90B48001D006820B109482C
:102440000830006800B100E0ABE700BFFEF72AFBF0
:10245000C820FFF797F801E0FEF724FBFCE7FFF741
:10246000ACB900002C81224230B589B005460C463B
:1024700001210220FEF7BEF901210420FEF7CAF96E
:102480004020ADF8200018208DF8230003208DF89F
:10249000220008A95F48FDF73FFFADF81850ADF8DE
:1024A00014400020ADF81A00ADF8160005A95A48EE
:1024B000FEF740FD6020ADF804000120ADF80600F5
:1024C0000020ADF80C0001A95348FEF7CFFB08210E
:1024D0005148FEF717FC01210220FEF78BF901217C
:1024E0000420FEF797F98020ADF8200018208DF821
:1024F000230003208DF8220008A94648FDF70CFFB1
:10250000ADF81850ADF814400020ADF81A00ADF841
:10251000160005A94048FEF70DFD6020ADF8040047
:102520000120ADF806000020ADF80C0001A93A48E2
:10253000FEF7F2FB08213848FEF740FC012102209B
:10254000FEF758F901210820FEF764F90120ADF8E3
:10255000200018208DF8230003208DF8220008A900
:102560002E48FDF7D9FEADF81850ADF81440002004
:10257000ADF81A00ADF8160005A92748FEF7DAFCF9
:102580006020ADF804000120ADF806000020ADF891
:102590000C0001A92048FEF71FFC08211E48FEF789
:1025A0006BFC01210220FEF725F901210820FEF72E
:1025B00031F90220ADF8200018208DF82300032007
:1025C0008DF8220008A91548FDF7A6FEADF81850B1
:1025D000ADF814400020ADF81A00ADF8160005A9BA
:1025E0000D48FEF7A7FC6020ADF804000120ADF80F
:1025F00006000020ADF80C0001A90748FEF746FCD4
:1026000008210548FEF780FC01210348FEF707FB7F
:1026100009B030BD0008014000040040000C01403A
:1026200010B57D218807FEF77EFCC820FEF7AAFFC3
:1026300000224FF42F6140F6D860FFF705F86420C0
:10264000FEF7A0FF00224FF4FA61084600F052F8AE
:10265000C820FEF797FF9B214FF08040FEF763FCF8
:102660004FF4FA70FEF78EFF002240F6C4110846C0
:1026700000F0D2F800224FF42F6140F6D86000F04D
:1026800053FC00224FF4FA71084600F033F810BDF5
:1026900010B51348007808BB00201249087019E0F3
:1026A0001148104A1278815C1048FEF740FF00BFC5
:1026B00040210E48FEF76DFE0128F9D10849087047
:1026C0000B48002101604160018106480078401CF0
:1026D00004490870034800780928E1DB10BD0000B8
:1026E00074000020750000207700002000380140B1
:1026F000840000202DE9F04706460F4614460025C9
:102700004FF001084FF001094FF0010A01203C4948
:10271000086000203B49C1F88801002C04DD01203D
:1027200037490831086004E0002035490831086065
:1027300064420F20FEF74CFF1D21C720FEF730FA40
:1027400040F28F114720FFF78FFE09212E48FEF738
:10275000E8FB09212C48FEF7E6FB09212A48FEF791
:10276000E4FB0020294908602949086029490860DC
:1027700041E00BE000212448FEF7D3FB0020234971
:102780000860681CC5B24FF0000806E01F480068EA
:10279000B04202D1B8F1000FECD100BF0BE0002134
:1027A0001948FEF7C0FB002019490860681CC5B233
:1027B0004FF0000906E016480068B84202D1B9F1AE
:1027C000000FECD100BF0BE000210F48FEF7ADFB7E
:1027D000002010490860681CC5B24FF0000A06E0EE
:1027E0000C480068A04202D1BAF1000FECD100BF42
:1027F000032D00D100E0BCE700BFBDE8F08700007A
:102800008401234200002342000400400000002015
:1028100004000020080000202DE9F04706460F467E
:10282000144600254FF001084FF001094FF0010A4E
:1028300000203B49086001203A49C1F88801002C7A
:1028400003DD37490831086004E0002034490831CD
:10285000086064420F20FEF7BBFE1D21C720FEF773
:102860009FF940F28F114720FFF7FEFD09212E4806
:10287000FEF757FB09212C48FEF755FB09212A4892
:10288000FEF753FB002029490860294908602949BF
:10289000086041E00BE000212348FEF742FB0020E6
:1028A00022490860681CC5B24FF0000806E01F48C6
:1028B0000068B04202D1B8F1000FECD100BF0BE0CC
:1028C00000211948FEF72FFB002019490860681CF9
:1028D000C5B24FF0000906E015480068B84202D1C1
:1028E000B9F1000FECD100BF0BE000210E48FEF75C
:1028F0001CFB00200F490860681CC5B24FF0000A9D
:1029000006E00C480068A04202D1BAF1000FECD1F9
:1029100000BF032D00D100E0BCE700BFBDE8F08799
:1029200084012342000023420004004000000020F4
:10293000040000200800002070B50446012C01D1DD
:10294000414D36E0022C01D1404D32E0032C30D114
:102950002AE032210846FDF7CFFE3D48006838B135
:102960003B48001D006818B1394808300068D0B9EC
:102970003748001D006838B135480830006818B184
:1029800033480C30006870B93148006860B1304895
:10299000001D006840B12E480830006820B12C4866
:1029A0000C30006800B100E0D3E700BFFEF77AF812
:1029B000284D40F2CF2140F2CF7000F0FFFB78218C
:1029C0004FF08040FEF7AFFA4FF47A70FEF7DAFD71
:1029D0002A464FF47A7140F6B830FEF735FE0022F1
:1029E000114640F6C410FEF72FFE4FF4FA70FEF7C2
:1029F000C9FD40F2CF2140F2CF7000F0DFFB9621FD
:102A00004FF08040FEF78FFA4FF47A70FEF7BAFD70
:102A10002A464FF47A7140F6B83000F085FA002269
:102A2000114640F6C41000F07FFA032C0AD103E0EF
:102A300028210846FDF76EFE074800680028F7D0F9
:102A4000FEF730F870BD00002CE8FFFFF8DFFFFF55
:102A50002801234288E1FFFF2C01244270B505467E
:102A6000012D02D144F2A01408E0022D02D143F25C
:102A7000B06403E0032D01D142F6EC4440F2CF21D3
:102A800040F2CF7000F09AFB96214FF08040FEF7A5
:102A90004AFA0022114640F62820FEF7D5FD4FF4F1
:102AA0007A70FEF76FFD22464FF4FA61084600F097
:102AB0003BFA4FF47A70FEF765FD002240F6FC0108
:102AC0004FF47A70FEF7C0FD40F2CF2140F2CF7094
:102AD00000F074FB87214FF08040FEF724FA4FF49A
:102AE0007A70FEF74FFD002240F6FC014FF47A7039
:102AF00000F01AFA224600210846FEF7A5FD002242
:102B00004FF4FA610846FEF79FFD0022114640F699
:102B1000282000F009FA70BD70B50546012D02D1DC
:102B200044F2A01408E0022D02D143F2B06403E0A5
:102B3000032D01D142F6EC44224640F6FC014FF44D
:102B40007A70FFF7D7FD4FF4FA70FEF71BFD0022F5
:102B500040F6FC014FF4FA70FEF776FD40F2CF210B
:102B600040F2CF7000F02AFB4FF4FA70FEF70AFD36
:102B7000A0214806FEF7D7F94FF4FA70FEF702FDE0
:102B8000002240F6FC01104600F0CEF9002211466A
:102B90004FF4FA7000F0C8F9224600210846FEF70B
:102BA00053FD002240F6FC014FF47A70FFF734FE2B
:102BB00070BD000010B50446312C42D1A021800721
:102BC000FEF7B1F900224FF47A71104600F0ACF92B
:102BD0004FF4E1624FF4967140F63C70FEF734FD1D
:102BE000002211464FF4FA70FEF72EFD40F2CF217D
:102BF00040F2CF7000F0E2FA8721A007FEF793F9C8
:102C00004FF4FA70FEF7BEFC00224FF4967141F2C9
:102C1000CC0000F089F94FF4E1620021084600F091
:102C200083F900224FF47A711046FEF70DFD40F251
:102C3000CF2140F2CF7000F0C1FA8721A007FEF744
:102C400072F9322C3AD1A0214806FEF76CF9002225
:102C50004FF47A71104600F067F93E4A4FF47A71EA
:102C600040F6AC50FEF7F0FC40F2CF2140F2CF70BE
:102C700000F0A4FA82214807FEF755F94FF4FA70E4
:102C8000FEF780FC00224FF47A7140F6AC5000F061
:102C90004BF9304A0021084600F046F900224FF473
:102CA0007A711046FEF7D0FC40F2CF2140F2CF708F
:102CB00000F084FA87216007FEF735F9332C47D1FD
:102CC000A0214806FEF72FF9002240F214511046C9
:102CD00000F02AF9204A00214FF47A60FEF7B4FC94
:102CE00040F2CF2140F2CF7000F068FA00224FF49A
:102CF000C8714FF49670FFF7FDFC82214807FEF77C
:102D000012F94FF4FA70FEF73DFC002211464FF421
:102D10007A6000F009F900224FF4C8714FF4967000
:102D2000FFF77AFD0C4A0021084600F0FDF800226A
:102D300040F214511046FEF787FC40F2CF2140F2DA
:102D4000CF7000F03BFA87214FF08040FEF7EBF8A0
:102D500010BD0000D4FEFFFF04F7FFFF70B505466D
:102D6000012D01D142F2661440F2CF2140F2CF7022
:102D700000F024FAA0214806FEF7D5F84FF4FA70C7
:102D8000FEF700FC22464FF4E1614FF4FA60FEF7D3
:102D90005BFC0022C8210846FFF7ACFC002211466C
:102DA0004FF4FA60FEF750FC4FF4FA70FEF7EAFBBE
:102DB00040F2CF2140F2CF7000F000FA82214807A4
:102DC000FEF7B1F84FF4FA70FEF7DCFB0022C821E1
:102DD0000846FFF721FD00224FF4E1614FF4FA604D
:102DE00000F0A2F822460021084600F09DF80022DB
:102DF00011464FF4FA6000F097F870BD70B50546C3
:102E0000022D01D141F6AA6440F2CF2140F2CF70E9
:102E100000F0D4F9A0214806FEF785F84FF4FA70C7
:102E2000FEF7B0FB22464FF4E1614FF4FA60FEF783
:102E30000BFC002211464FF4FA60FEF705FC4FF43C
:102E4000FA70FEF79FFB40F2CF2140F2CF7000F006
:102E5000B5F982214807FEF766F84FF4FA70FEF7DD
:102E600091FB00224FF4E1614FF4FA6000F05CF84E
:102E700022460021084600F057F8002211464FF480
:102E8000FA6000F051F870BD70B50546032D01D110
:102E900041F2126440F2CF2140F2CF7000F08EF97F
:102EA000A0214806FEF73FF84FF4FA70FEF76AFBE0
:102EB00022464FF4C8614FF4FA60FEF7C5FB0022CA
:102EC000C8214FF4FA60FEF7BFFB002264210846D8
:102ED000FFF710FC4FF4FA70FEF754FB40F2CF21DD
:102EE00040F2CF7000F06AF982214807FEF71BF824
:102EF0004FF4FA70FEF746FB00224FF4C8614FF41E
:102F0000FA6000F011F8002264210846FFF784FC03
:102F100022460021084600F007F80022C8214FF49D
:102F2000FA6000F001F870BD2DE9F04706460F4643
:102F3000144600254FF001084FF001094FF0010A37
:102F400001203B4908603B49C1F88801002C03DDA2
:102F500037490831086004E000203549083108602D
:102F600064420F20FEF734FB1D21C720FDF718FE39
:102F700040F257214720FFF777FA09212E48FDF745
:102F8000D0FF09212C48FDF7CEFF09212A48FDF783
:102F9000CCFF0020294908602949086029490860B8
:102FA00041E00BE000212448FDF7BBFF002023494E
:102FB0000860681CC5B24FF0000806E01F480068B2
:102FC000B04202D1B8F1000FECD100BF0BE00021FC
:102FD0001948FDF7A8FF002019490860681CC5B210
:102FE0004FF0000906E016480068B84202D1B9F176
:102FF000000FECD100BF0BE000210F48FDF795FF5B
:10300000002010490860681CC5B24FF0000A06E0B5
:103010000C480068A04202D1BAF1000FECD100BF09
:10302000032D00D100E0BCE700BFBDE8F087000041
:1030300084012342000023420004004000000020DD
:10304000040000200800002010B586B004460121CD
:103050001020FDF7DFFB0121C804FDF7CBFB182092
:103060008DF817004FF48060ADF8140001208DF842
:10307000160005A91E48FDF74FF904208DF817002A
:103080004002ADF8140005A91948FDF745F901946F
:103090000020ADF810000C20ADF80E000020ADF8B7
:1030A0000C00ADF80A00ADF8080001A91148FEF7C0
:1030B000CDF9012240F225510E48FEF7A1F9012178
:1030C0000C48FEF75AF940210A48FEF73EF9342031
:1030D0008DF8000000208DF801008DF8020001201D
:1030E0008DF803006846FDF741FB06B010BD0000F7
:1030F00000100140004C004010B586B0044601218C
:1031000044F20400FDF786FB4FF40070ADF81400A4
:1031100003208DF8160018208DF8170005A91C480B
:10312000FDF7FAF84FF48060ADF8140004208DF834
:10313000170005A91648FDF7EFF825208DF80000C7
:1031400003208DF801008DF8020001208DF80300A6
:103150006846FDF70BFB01940020ADF80800ADF8C0
:103160000A00ADF80C00ADF810000C20ADF80E0010
:1031700001A90848FEF76AF9012240F225510548E5
:10318000FEF73EF901210348FEF7F7F806B010BD3F
:10319000000801400038014000200449087004493B
:1031A00008700449087004490870704770000020D6
:1031B00071000020720000207300002030B589B03B
:1031C00005460C4601210846FDF714FB01210420A9
:1031D000FDF720FB0220ADF8200018208DF8230019
:1031E00003208DF8220008A91448FDF795F8ADF8E2
:1031F0001850ADF814400020ADF81A00ADF81600D4
:1032000005A94FF08040FDF795FE6020ADF8040061
:103210000120ADF806000020ADF80C0001A94FF028
:103220008040FDF779FD0821C806FDF7C7FD0121A3
:103230008807FDF7F4FC09B030BD0000000801402C
:103240006032000800000020840000006C010008CB
:10325000E4320008840000206C06000088010008A9
:10326000000000000000000000000000D007000087
:10327000D0070000D007000001000000000000009F
:10328000000000000000000000000000000000003E
:103290000000000000A24A0400000000000000003E
:1032A00001020304060708090000000000000000F6
:1032B000000000000000000001000000000000000D
:1032C00001020304010203040607080902040608B8
:1032D000000000000000007E000801000201ABCDEC
:0432E00000000000EA
:04000005080001CD21
:00000001FF
